:020000040800F2
:100000000020002089110008691000087310000802
:1000100000000000000000000000000000000000E0
:10002000000000000000000000000000791000083F
:100030000000000000000000831000088D10000880
:10004000D9110008D9110008D9110008D9110008E8
:10005000D9110008D9110008D9110008D9110008D8
:10006000D9110008D9110008D9110008D9110008C8
:10007000D9110008D911000800000000D9110008AA
:1000800000000000D911000800000000000000007E
:10009000D911000800000000D9110008D91100088A
:1000A000D9110008D9110008D9110008D911000888
:1000B0009D100008D9110008D9110008D9110008B5
:1000C00010B5064C2378002B07D1054B002B02D02E
:1000D000044800E000BF0123237010BD3C02002053
:1000E00000000000D85F0008044B10B5002B03D0BF
:1000F0000349044800E000BF10BDC04600000000F6
:1001000040020020D85F000802780B78002A03D054
:10011000013001319A42F7D0D01A70470023C25CF7
:100120000133002AFBD1581E70470000002243080B
:100130008B4274D303098B425FD3030A8B4244D3AF
:10014000030B8B4228D3030C8B420DD3FF220902F1
:1001500012BA030C8B4202D31212090265D0030BB0
:100160008B4219D300E0090AC30B8B4201D3CB03A6
:10017000C01A5241830B8B4201D38B03C01A5241E8
:10018000430B8B4201D34B03C01A5241030B8B42EA
:1001900001D30B03C01A5241C30A8B4201D3CB02D5
:1001A000C01A5241830A8B4201D38B02C01A5241BA
:1001B000430A8B4201D34B02C01A5241030A8B42BD
:1001C00001D30B02C01A5241CDD2C3098B4201D3D5
:1001D000CB01C01A524183098B4201D38B01C01A53
:1001E000524143098B4201D34B01C01A52410309CA
:1001F0008B4201D30B01C01A5241C3088B4201D379
:10020000CB00C01A524183088B4201D38B00C01A25
:10021000524143088B4201D34B00C01A5241411A4C
:1002200000D20146524110467047FFE701B5002059
:1002300000F0F0F802BDC0460029F7D076E770471D
:1002400003460B437FD4002243088B4274D3030937
:100250008B425FD3030A8B4244D3030B8B4228D3D8
:10026000030C8B420DD3FF22090212BA030C8B42FE
:1002700002D31212090265D0030B8B4219D300E09E
:10028000090AC30B8B4201D3CB03C01A5241830B23
:100290008B4201D38B03C01A5241430B8B4201D3D3
:1002A0004B03C01A5241030B8B4201D30B03C01AFC
:1002B0005241C30A8B4201D3CB02C01A5241830A76
:1002C0008B4201D38B02C01A5241430A8B4201D3A5
:1002D0004B02C01A5241030A8B4201D30B02C01ACF
:1002E0005241CDD2C3098B4201D3CB01C01A524136
:1002F00083098B4201D38B01C01A524143098B42BF
:1003000001D34B01C01A524103098B4201D30B01A7
:10031000C01A5241C3088B4201D3CB00C01A5241CC
:1003200083088B4201D38B00C01A524143088B4291
:1003300001D34B00C01A5241411A00D2014652412A
:10034000104670475DE0CA0F00D04942031000D349
:100350004042534000229C4603098B422DD3030A9E
:100360008B4212D3FC22890112BA030A8B420CD3AE
:10037000890192118B4208D3890192118B4204D3D7
:1003800089013AD0921100E08909C3098B4201D357
:10039000CB01C01A524183098B4201D38B01C01A91
:1003A000524143098B4201D34B01C01A5241030908
:1003B0008B4201D30B01C01A5241C3088B4201D3B7
:1003C000CB00C01A524183088B4201D38B00C01A64
:1003D0005241D9D243088B4201D34B00C01A52413B
:1003E000411A00D20146634652415B10104601D3C8
:1003F0004042002B00D54942704763465B1000D352
:10040000404201B5002000F005F802BD0029F8D0F7
:1004100016E770477047C046002B15D1002A13D14C
:10042000002906DB01DC002806D00020C04341087B
:1004300002E080210906002007B4024801A140180B
:10044000029003BDD1FFFFFF03B4684601B50298D7
:1004500000F0E8F8019B9E4602B00CBC7047C04615
:10046000002B11D1002A0FD1002900D1002802D081
:100470000021C943081C07B4024802A14018029099
:1004800003BDC04691FFFFFF03B4684601B5029863
:1004900000F006F8019B9E4602B00CBC7047C046B7
:1004A000F0B54F464646D646C0B5040082B00D00B2
:1004B000914698468B422FD82CD04146484600F0B2
:1004C000CDF829000600200000F0C8F8331A9C4639
:1004D000203B9A4600D576E04B46524693401F009B
:1004E0004B46624693401E00AF4228D825D0534663
:1004F000A41BBD41002B00DA7BE000220023009208
:100500000193012352469340019301236246934095
:10051000009318E08242D0D9002200230092019378
:100520000A9B002B01D01C605D600098019902B00D
:100530001CBC90469946A246F0BDA342D7D90022E2
:100540000023009201936346002BE9D0FB079846F5
:10055000414672080A437B0866460EE0AB4201D171
:10056000A2420CD8A41A9D41012024196D410021FA
:10057000013E24184D41002E06D0AB42EED9013E7B
:1005800024196D41002EF8D10098019953460019A5
:100590006941002B23DB2B005246D3402A006446DE
:1005A000E2401C0053461500002B2DDB2600574669
:1005B000BE40330026006746BE403200801A994193
:1005C00000900191ACE7624620239B1A4A46DA402C
:1005D0006146130042468A4017001F4380E7624687
:1005E00020239B1A2A0066469A402300F3401343B7
:1005F000D4E76246202300219B1A00220091019239
:100600000122DA40019280E72023624626009B1AED
:10061000DE402F00B0466646B74046463B003343B7
:10062000C8E7C046F0B583B016001F0000900191E6
:1006300000F04AF804000D0002000B003000390001
:1006400000F018F8009A019B121A8B4108992000BB
:100650000A604B60290003B0F0BDC04610B5002908
:1006600003D100F009F9203002E0081C00F004F981
:1006700010BDC046F0B5CE46474615042D0C2E00E1
:1006800080B50704140C3F0C9946030C7E435D4370
:10069000674363437F19340CE4199C46A54203D990
:1006A00080235B029846C4444B4643435143250C88
:1006B00036046544360C2404A4195B19591820002B
:1006C0000CBC90469946F0BDF0B54E465746DE4606
:1006D0004546E0B50F00002183B006008946002F93
:1006E00006DA3900002746428F41012149428946F6
:1006F000002B07DA4946C943100089461900002338
:1007000042428B4134003D0092469846BB4269D834
:1007100066D041465046FFF7A1FF834639003000BE
:10072000FFF79CFF5B461B1A9C46203B9B4600D56F
:1007300075E05146584681400B0051466046814065
:100740000A00BB4261D85ED034003D005946A41A6D
:100750009D41002900DA7AE0002100200126009066
:10076000019159468E400196614601268E406146B0
:100770000096002950D0D90756085F080E436346FB
:100780000EE0AF4201D1A6420CD8A41BBD4101210D
:1007900024196D410022013B64185541002B06D0FD
:1007A000AF42EED9013B24196D41002BF8D10098DE
:1007B00001995B4600196941002B3DDB2E00DE40AC
:1007C00063462C00DC405B46002B4BDB34005D466F
:1007D000AC4023006446A6403200801A994103E0F1
:1007E000B24296D9002000214B46002B04D00300D2
:1007F0000C0000215842A14103B03CBC90469946F0
:10080000A246AB46F0BDB1429ED900210020009027
:10081000019161460029AED100980199E4E72023B7
:10082000624651469B1AD940404600916146884035
:10083000030000990B4380E7624620239B1A2A009D
:100840009A40260013006246D6401E43B8E7614630
:1008500020260127761A00200021F7400090019100
:10086000019781E76746202362463500BC409B1A0A
:10087000DD4023002B43ADE71C2101231B049842DC
:1008800001D3000C10391B0A984201D3000A083921
:100890001B09984201D30009043902A2105C4018D8
:1008A0007047C0460403020201010101000000007C
:1008B00000000000F0B593B000AF386079603424D8
:1008C0003B1914220021180003F03BFC3023FB18D5
:1008D00004220021180003F034FC3B00180003F050
:1008E0000BFB02000C217B1861CA61C361CA61C3A2
:1008F00061CA61C37B189B68DAB23B191A707B1816
:100900005B68DAB23B195A707B181B68DAB23B1984
:100910009A7039191F4B0022180001F04BFF031E7B
:1009200001D000F007FB0C23FB189B69002B03D1BF
:100930000C23FB1807229A610C203B189B69DAB242
:1009400030217B181A703B181B69DBB20133DAB215
:100950007B185A703B18DB68DAB27B189A703B1828
:100960005B69DBB2643BDAB27B18DA707918094B49
:100970000022180002F03EF8031E01D000F0DAFA5F
:10098000054A044B0021180002F08EFBC046BD460C
:1009900013B0F0BD98020020F2320000F0B597B01D
:1009A00000AF28243B1914220021180003F0C9FBD2
:1009B0003C257B1904220021180003F0C2FB3919E1
:1009C000324B0022180001F0B9FF79192F4B002299
:1009D000180002F0BDF85726BB193A1912781A70A0
:1009E0005623FB183A1952781A705522BB183A1937
:1009F00092781A7054217B187A1992781A705320C1
:100A00003B187A1952781A707B19DA7850243B19FE
:100A10001A804E257B193A19128864321A800023F5
:100A200000243B647C643B1D180024231A00002131
:100A300003F087FB7B191A883B1D5A6153203B1832
:100A40001B785A1E3B1D1A6154217B181A783B1DD6
:100A5000DA60BB191A783B1D9A605623FB181A7886
:100A60003B1D5A605522BB181A783B1D1A603B1D6E
:100A7000180003F039FC03000C003B647C643B6C01
:100A80007C6C18002100BD4617B0F0BD9802002014
:100A900080B5B2B000AF00F0A1FB00F04BF800F061
:100AA000A3F900F0B9F800F06FF96423FA181D4BB0
:100AB0001000190060231A0003F03AFB0023C4223F
:100AC000BA1813606423FB18C422BA181268920083
:100AD000D3580A21180000F0BDF9031E04D1124BAF
:100AE0001B685A1C104B1A60C423FB181B68172B79
:100AF00010D10023C422BA1813600C4B00221A60D4
:100B00000B4B00221A603B0064220021180003F006
:100B100018FBD7E7C422BB181B680133BA1813604F
:100B2000D0E7C046F05F00086002002058020020B5
:100B30005C02002090B59DB000AF38243B1918002E
:100B400038231A00002103F0FCFA2423FB181800B4
:100B500014231A00002103F0F4FA3B0018002423A8
:100B60001A00002103F0EDFA294B1B68294A1A40AC
:100B7000274B802109010A431A6021007B181822A3
:100B80001A607B1801225A617B180122DA617B18F6
:100B900000221A627B18A02212025A627B180022DD
:100BA0009A627B18180000F05FFE031E01D000F06F
:100BB000C1F924217B180F221A607B1800225A6089
:100BC0007B1800229A607B180022DA607B180022D2
:100BD0001A617B180021180001F006FA031E01D0EB
:100BE00000F0A8F93B0022221A603B0000221A61A3
:100BF0003B00802292025A603B00180001F0D8FBB3
:100C0000031E01D000F096F9C046BD461DB090BD50
:100C100000700040FFE7FFFF80B590B000AF2C23CD
:100C2000FB18180014231A00002103F08AFA282365
:100C3000FB1800221A603B00180028231A0000212C
:100C400003F07FFA4E4B4F4A1A604D4B00225A6018
:100C50004B4B7F229A604A4BFF22DA60484B0022BE
:100C60001A61474B00225A61454B00229A61444B5E
:100C70000022DA61424B180001F0FEFC031E01D095
:100C800000F058F92C217B1800221A707B180022E2
:100C90005A707B1800229A707B180022DA607B1849
:100CA00000221A617918364B0022180001F082FDEB
:100CB000031E01D000F03EF928217B1801221A7092
:100CC0007B1801225A707B1801229A707B1800222F
:100CD000DA7079182A4B0022180001F08BFE031EEF
:100CE00001D000F027F93B0000221A703B000022DF
:100CF0005A703B0000229A703B0000225A603B0071
:100D00000022DA603B0000221A613B0000225A6197
:100D10003B0000229A613B000022DA613B00202266
:100D2000012199543B00802252005A623900144B31
:100D30000022180001F05AFF031E01D000F0FAF85B
:100D40003B002022012199543B00802292005A62EC
:100D500039000B4B0022180001F048FF031E01D0A0
:100D600000F0E8F8064B00220021180002F0FCF821
:100D7000031E01D000F0DEF8C046BD4610B080BDB5
:100D8000980200200028004080B500AF144B154A9F
:100D90001A60134BE12252025A60114B00229A60F2
:100DA0000F4B0022DA600E4B00221A610C4B0C2212
:100DB0005A610B4B00229A61094B0022DA61084B01
:100DC00000221A62064B00225A62054B180002F0FC
:100DD00081F9031E01D000F0ADF8C046BD4680BDCC
:100DE000BC0200200044004080B586B000AF3B1D2F
:100DF000180014231A00002103F0A3F9144BDA6A37
:100E0000134B01210A43DA62114BDB6A01221340C2
:100E10003B603B68A023DB0500222021180000F086
:100E2000F3FC3B1D20221A603B1D01225A603B1D32
:100E300000229A603B1D0022DA603A1DA023DB05E8
:100E40001100180000F06AFBC046BD4606B080BD28
:100E500000100240B0B59CB000AF786039607B688C
:100E60001C0000231D0020002900FFF723FDFA23AA
:100E70009B00180000F012FA0023FB6608243B19BF
:100E800064220021180003F05CF97A6825493B19B7
:100E9000180003F09FFC3B196421180003F0BAFC12
:100EA00003009AB201235B4239191F4802F066F928
:100EB00008257B1964220021180003F042F9A023C1
:100EC000DB052021180000F0BCFCFFF767FD0300E4
:100ED0000C001A00154B1A60144B1A6814497B1940
:100EE000180003F077FC7B196421180003F092FCD2
:100EF00003009AB201235B4279190B4802F03EF9D4
:100F0000FA239B00180000F0C9F9FB6E0133FB6661
:100F1000FA6E3B689A42CBD301231800BD461CB041
:100F2000B0BDC04650600008BC0200205C0200203A
:100F30006060000890B59BB000AF3B1D64220021AB
:100F4000180003F0FEF83B1D094A13CA13C31278B8
:100F50001A703B1D6421180003F05CFC03009AB278
:100F600001235B42391D034802F008F9FEE7C04641
:100F700070600008BC02002080B500AF074B5A6BC0
:100F8000064B01210A435A63044B9A6B034B8021A1
:100F900049050A439A63C046BD4680BD0010024021
:100FA00080B582B000AF78607B681B68064A9342C8
:100FB00006D1064B1A6D054B8021C9020A431A65FA
:100FC000C046BD4602B080BD00280040001002406F
:100FD00080B588B000AF78600C23FB18180014238C
:100FE0001A00002103F0ADF87B681B681C4A93428D
:100FF00031D11C4B9A6B1B4B802189020A439A63A7
:10100000184BDA6A174B01210A43DA62154BDB6A87
:1010100001221340BB60BB680C217B180C221A60B4
:101020007B1802225A607B1800229A607B180322E8
:10103000DA607B1804221A617A18A023DB051100FC
:10104000180000F06BFA002200211C2000F0ECF9DF
:101050001C2000F0FEF9C046BD4608B080BDC04669
:10106000004400400010024080B500AFC046BD46BD
:1010700080BD80B500AFFEE780B500AFC046BD467D
:1010800080BD80B500AFC046BD4680BD80B500AF15
:1010900000F0EEF8C046BD4680BD000080B500AF50
:1010A000034B180002F012F9C046BD4680BDC04691
:1010B000BC02002080B584B000AF7860114B1B6883
:1010C000002B02D10F4B104A1A600E4B1B68FB60BD
:1010D0000C4B1A687B68D3186A46934207D902F012
:1010E000E1FE03000C221A6001235B4206E0054B7F
:1010F0001A687B68D218034B1A60FB681800BD465B
:1011000004B080BD680200204803002080B500AF15
:10111000174B1A68164B802149000A431A60144B7A
:10112000DA68134B13490A40DA60114B1A68104B06
:1011300011490A401A600E4B9A680D4B01218A43EF
:101140009A600B4B1A680A4B0C490A401A60084B0C
:10115000DA68074B0A490A40DA60054B00221A6137
:10116000084B802212059A60C046BD4680BDC0462D
:10117000001002400C40FF88F6FFF6FEFFFFFBFF69
:10118000FFFF02FF00ED00E00D488546002103E06F
:101190000C4B5B58435004310B480C4B42189A429D
:1011A000F6D30B4A02E0002313600432094B9A4243
:1011B000F9D3FFF7ABFF02F07BFEFFF769FCFEE718
:1011C00000200020C0630008000000203C02002036
:1011D0003C02002044030020FEE7000080B582B0FE
:1011E00000AFFB1D00221A700B4B1A680A4B4021FE
:1011F0000A431A60002000F011F8031E03D0FB1D03
:1012000001221A7001E0FFF7B7FEFB1D1B781800E2
:10121000BD4602B080BDC0460020024080B584B00B
:1012200000AF78600F23FB1800221A700F4B1A686A
:10123000FA2399001000FEF779FF0300180000F070
:1012400018F9031E04D00F23FB1801221A7006E0C0
:10125000796801235B420022180000F0E5F80F23B3
:10126000FB181B781800BD4604B080BD04000020A8
:1012700080B500AF034B1B685A1C024B1A60C04676
:10128000BD4680BD3C03002080B500AF024B1B680B
:101290001800BD4680BDC0463C03002080B584B028
:1012A00000AF7860FFF7F0FF0300BB607B68FB6076
:1012B000FB68013302D0FB680133FB60C046FFF7D7
:1012C000E3FF0200BB68D31AFA689A42F7D8C04617
:1012D000BD4604B080BD000080B582B000AF020002
:1012E000FB1D1A70FB1D1B781A001F231A40044BAC
:1012F000012191400A001A60C046BD4602B080BD7F
:1013000000E100E090B583B000AF02003960FB1D42
:101310001A70FB1D1B787F2B32D92F4AFB1D1B78BF
:1013200019000F230B40083B9B0806339B00D31882
:1013300004331B68FA1D1278110003220A40D20000
:10134000FF2191400A00D2431A4011003B689B01E3
:10135000FF221A40FB1D1B78180003230340DB000B
:101360009A401D48FB1D1B781C000F232340083B9F
:101370009B080A4306339B00C31804331A6027E016
:10138000164AFB1D1B785BB29B08C0339B009B5821
:10139000FA1D1278110003220A40D200FF21914069
:1013A0000A00D2431A4011003B689B01FF221A40F9
:1013B000FB1D1B78180003230340DB009A400748FD
:1013C000FB1D1B785BB29B080A43C0339B001A507D
:1013D000C046BD4603B090BD00ED00E000E100E076
:1013E00080B582B000AF78607B68013B0C4A9342C5
:1013F00001D9012310E00B4B7A68013A5A600123AE
:101400005B4203211800FFF77DFF064B00229A6024
:10141000044B07221A6000231800BD4602B080BDAD
:10142000FFFFFF0010E000E080B584B000AFB960BE
:101430007A600F217B18021C1A70BA687B181B781F
:101440005BB211001800FFF75DFFC046BD4604B057
:1014500080BD80B582B000AF0200FB1D1A70FB1D7D
:101460001B785BB21800FFF737FFC046BD4602B0DD
:1014700080BD80B582B000AF78607B681800FFF750
:10148000AFFF03001800BD4602B080BD80B584B038
:1014900000AF78600F23FB1800221A707B682522AA
:1014A0009B5CDBB2022B07D07B680422DA630F233C
:1014B000FB1801221A702AE07B681B681A687B6897
:1014C0001B680E218A431A607B681B681A687B6858
:1014D0001B6801218A431A607B685B6C1C221A40DE
:1014E0007B681B6C012191400A005A607B682522B1
:1014F000012199547B682422002199547B689B6BBD
:10150000002B04D07B689B6B7A68100098470F23F0
:10151000FB181B781800BD4604B080BD80B586B0AE
:1015200000AF7860396000237B610023FB600023FB
:101530003B614FE13B681B6801217A6991400A00D9
:101540001340FB60FB68002B00D140E13B685B6807
:10155000022B03D03B685B68122B23D17B69DA082E
:101560007B6808329200D3583B617B6907221340A5
:101570009B000F229A401300DA433B6913403B6102
:101580003B681A697B6907210B409B009A40130056
:101590003A6913433B617B69DA087B680832920041
:1015A0003969D1503B685B68012B0BD03B685B68A5
:1015B000022B07D03B685B68112B03D03B685B684C
:1015C000122B30D17B689B683B617B695B000322F7
:1015D0009A401300DA433B6913403B613B68DA6889
:1015E0007B695B009A4013003A6913433B617B6857
:1015F0003A699A607B685B683B6101227B699A402B
:101600001300DA433B6913403B613B685B681B098D
:1016100001221A407B699A4013003A6913433B61E7
:101620007B683A695A607B681B683B617B695B0039
:1016300003229A401300DA433B6913403B613B6845
:101640005B6803221A407B695B009A4013003A6989
:1016500013433B617B683A691A607B68DB683B61D6
:101660007B695B0003229A401300DA433B69134015
:101670003B613B689A687B695B009A4013003A695A
:1016800013433B617B683A69DA603B685A688023A0
:101690005B05134000D19AE0544B5A6B534B012128
:1016A0000A435A63524A7B699B0802339B009B584A
:1016B0003B617B69032213409B000F229A40130079
:1016C000DA433B6913403B617A68A023DB059A4209
:1016D00019D07B68474A934213D07B68464A9342AD
:1016E0000DD07B68454A934207D07B68444A9342B9
:1016F00001D1052308E0062306E0032304E00223CA
:1017000002E0012300E000237A6903210A409200ED
:1017100093403A6913433B6135497B699B08023327
:101720009B003A695A50374B1B683B61FB68DA43B0
:101730003B6913403B613B685A6880235B0213405E
:1017400003D03A69FB6813433B612E4B3A691A6038
:101750002C4B5B683B61FB68DA433B6913403B61A0
:101760003B685A6880239B02134003D03A69FB68A8
:1017700013433B61234B3A695A60224B9B683B61A0
:10178000FB68DA433B6913403B613B685A6880233E
:101790005B03134003D03A69FB6813433B61194B69
:1017A0003A699A60174BDB683B61FB68DA433B6937
:1017B00013403B613B685A6880239B03134003D06E
:1017C0003A69FB6813433B610E4B3A69DA607B6907
:1017D00001337B613B681A687B69DA40131E00D0D5
:1017E000A8E6C046BD4606B080BDC0460010024017
:1017F000000001400004005000080050000C0050A0
:10180000001C00500004014080B582B000AF786039
:1018100008001100BB1C021C1A807B1C0A1C1A70D9
:101820007B1C1B78002B04D0BB1C1A887B689A6138
:1018300003E0BB1C1A887B689A62C046BD4602B0B2
:1018400080BD80B582B000AF78600A00BB1C1A80F2
:101850007B685A69BB1C1B885A407B685A61C0462A
:10186000BD4602B080BD0000B0B58AB000AF786060
:101870007B68002B02D1012300F0ABFBCE4BDB6871
:101880000C2213403B62CC4BDA6880235B0213408E
:10189000FB617B681B680122134000D17EE03B6A3C
:1018A000082B07D03B6A0C2B12D1FA6980235B020C
:1018B0009A420DD1C04B1A6880239B02134000D17D
:1018C0006BE07B685B68002B67D1012300F081FB34
:1018D0007B685A6880235B029A4207D1B64B1A682C
:1018E000B54B802149020A431A6027E07B685A6899
:1018F000A023DB029A420ED1AF4B1A68AE4B802177
:10190000C9020A431A60AC4B1A68AB4B80214902EA
:101910000A431A6012E0A84B1A68A74BA7490A406D
:101920001A60A54B1A6880235B021340FB60FB68BA
:10193000A14B1A68A04BA2490A401A607B685B68F9
:10194000002B15D0FFF7A0FC0300BB6109E0FFF7F7
:101950009BFC0200BB69D31A642B02D9032300F05D
:1019600038FB954B1A6880239B021340EFD015E09B
:10197000FFF78AFC0300BB6108E0FFF785FC02006B
:10198000BB69D31A642B01D9032322E38A4B1A685B
:1019900080239B021340F0D100E0C0467B681B68A7
:1019A0000222134000D18AE07B68DB687B613B6ADE
:1019B000042B05D03B6A0C2B3DD1FB69002B3AD19F
:1019C0007D4B1B680422134004D07B69002B01D19E
:1019D0000123FEE2784B5B687A4A134019007B686A
:1019E0001B691A02744B0A435A60734B1B68092225
:1019F00093431900704B7A690A431A6000F01EFC89
:101A000001006D4BDB681B090F2213406E4AD35C4B
:101A10000A00DA406D4B1A6013257C190020FFF78D
:101A2000FDFB030023707B191B78002B47D0132389
:101A3000FB181B78CDE27B69002B27D05E4B1B681F
:101A40000922934319005C4B7A690A431A60FFF735
:101A50001BFC0300BB6108E0FFF716FC0200BB693A
:101A6000D31A022B01D90323B3E2534B1B68042280
:101A70001340F1D0504B5B68524A134019007B6809
:101A80001B691A024C4B0A435A6018E04A4B1A6809
:101A9000494B01218A431A60FFF7F6FB0300BB6143
:101AA00008E0FFF7F1FB0200BB69D31A022B01D952
:101AB00003238EE2404B1B6804221340F1D17B6864
:101AC0001B681022134000D19EE03B6A002B3FD1DF
:101AD000394B1A6880239B00134005D07B68DB6973
:101AE000002B01D1012374E2334B5B68384A134069
:101AF00019007B685A6A304B0A435A602E4B5B6868
:101B00001B02190A7B681B6A1A062B4B0A435A6090
:101B10007B685B6A5B0B0133802212029A40264B82
:101B2000DB681B090F210B402749CB5CDA40274BB0
:101B30001A6013257C190020FFF770FB0300237047
:101B40007B191B78002B5FD01323FB181B7840E216
:101B50007B68DB69002B3DD0174B1A68164B802140
:101B600049000A431A60FFF78FFB0300BB6108E0DE
:101B7000FFF78AFB0200BB69D31A022B01D90323AA
:101B800027E20D4B1A6880239B001340F0D00A4BCC
:101B90005B680F4A134019007B685A6A064B0A4378
:101BA0005A60054B5B681B02190A7B681B6A1A06A0
:101BB000014B0A435A6027E000100240FFFFFEFF7E
:101BC000FFFFFBFFFFE0FFFF8C6000080400002028
:101BD000FF1FFFFFBD4B1A68BC4BBD490A401A608E
:101BE000FFF752FB0300BB6108E0FFF74DFB02006B
:101BF000BB69D31A022B01D90323EAE1B34B1A685C
:101C000080239B001340F0D17B681B68082213409F
:101C100036D07B685B69002B19D0AC4B1A6DAB4B8F
:101C200001210A431A65FFF72FFB0300BB6108E09F
:101C3000FFF72AFB0200BB69D31A022B01D9032349
:101C4000C7E1A24B1B6D02221340F1D018E09F4B5D
:101C50001A6D9E4B01218A431A65FFF715FB03009D
:101C6000BB6108E0FFF710FB0200BB69D31A022B2F
:101C700001D90323ADE1954B1B6D02221340F1D135
:101C80007B681B680422134000D1AFE02723FB18B8
:101C900000221A708D4B9A6B80235B0513400AD18A
:101CA0008A4B9A6B894B802149050A439A63272303
:101CB000FB1801221A70874B1A6880235B001340BF
:101CC0001AD1844B1A68834B802149000A431A6059
:101CD000FFF7DAFA0300BB6108E0FFF7D5FA02006C
:101CE000BB69D31A642B01D9032372E1794B1A68BB
:101CF00080235B001340F0D07B689A6880235B00F0
:101D00009A4207D1714B1A6D704B802149000A43EA
:101D10001A6531E07B689B68002B0CD16B4B1A6D08
:101D20006A4B6B490A401A65684B1A6D674B6A49E2
:101D30000A401A6520E07B689A68A023DB009A427B
:101D40000ED1624B1A6D614B8021C9000A431A659E
:101D50005E4B1A6D5D4B802149000A431A650BE00A
:101D60005A4B1A6D594B5A490A401A65574B1A6D0E
:101D7000564B59490A401A657B689B68002B15D061
:101D8000FFF782FA0300BB6109E0FFF77DFA02006A
:101D9000BB69D31A514A934201D9032319E14B4B32
:101DA0001A6D80239B001340EFD014E0FFF76CFA0C
:101DB0000300BB6109E0FFF767FA0200BB69D31AB1
:101DC000464A934201D9032303E1404B1A6D802315
:101DD0009B001340EFD12723FB181B78012B05D163
:101DE0003A4B9A6B394B3E490A409A637B681B68B1
:101DF0002022134049D07B689B69002B26D0334BAF
:101E00009A68324B01210A439A60304B5A6B2F4B30
:101E100001210A435A63334B1A6A324B80218901EC
:101E20000A431A62FFF730FA0300BB6108E0FFF7CC
:101E30002BFA0200BB69D31A022B01D90323C8E095
:101E4000224B9B6802221340F1D01EE01F4B9A6880
:101E50001E4B01218A439A60224B1A6A214B224968
:101E60000A401A62FFF710FA0300BB6108E0FFF7AF
:101E70000BFA0200BB69D31A022B01D90323A8E095
:101E8000124B9B6802221340F1D17B689B6A002BA6
:101E900000D19DE03B6A0C2B00D176E07B689B6A09
:101EA000022B57D1094B1A68084B10490A401A6097
:101EB000FFF7EAF90300BB611AE0FFF7E5F902005A
:101EC000BB69D31A022B13D9032382E0001002400E
:101ED000FFFEFFFF00700040FFFBFFFF88130000C4
:101EE000FFFFFFEF00000140FFDFFFFFFFFFFFFEEE
:101EF0003A4B1A6880239B041340DED1374BDB68D2
:101F0000374A134019007B68DA6A7B681B6B1A43F7
:101F10007B685B6B1A43314B0A43DA602F4B1A68BC
:101F20002E4B802149040A431A60FFF7ADF90300E4
:101F3000BB6108E0FFF7A8F90200BB69D31A022BC6
:101F400001D9032345E0254B1A6880239B041340E5
:101F5000F0D03DE0214B1A68204B22490A401A601C
:101F6000FFF792F90300BB6108E0FFF78DF902006B
:101F7000BB69D31A022B01D903232AE0174B1A6835
:101F800080239B041340F0D122E07B689B6A012BE5
:101F900001D101231DE0114BDB68FB61FA6980234D
:101FA0005B021A407B68DB6A9A420FD1FA69F02320
:101FB0009B031A407B681B6B9A4207D1FA69C023C6
:101FC0001B041A407B685B6B9A4201D0012300E03E
:101FD00000231800BD460AB0B0BDC0460010024044
:101FE000FFFF02FFFFFFFFFEB0B584B000AF7860D7
:101FF00039607B68002B01D101230DE1884B1B6800
:10200000012213403A689A4211D9854B1B6801227C
:1020100093431900824B3A680A431A60804B1B684D
:10202000012213403A689A4201D00123F4E07B6810
:102030001B680222134009D07A4BDB68F0229343DD
:1020400019007B689A68774B0A43DA607B681B68E3
:102050000122134000D189E07B685B68022B07D125
:10206000704B1A6880239B02134020D10123D3E0D8
:102070007B685B68032B07D16A4B1A6880239B043B
:10208000134014D10123C7E07B685B68012B06D1A4
:10209000644B1B680422134009D10123BCE0614B4F
:1020A0001A6880239B00134001D10123B4E05D4BEB
:1020B000DB680322934319007B685A68594B0A4333
:1020C000DA60FFF7E1F80300FB607B685B68022BD6
:1020D00011D109E0FFF7D8F80200FB68D31A524A81
:1020E000934201D9032397E04E4BDB680C22134047
:1020F000082BEFD13AE07B685B68032B11D109E034
:10210000FFF7C2F80200FB68D31A474A934201D98D
:10211000032381E0434BDB680C2213400C2BEFD1EF
:1021200024E07B685B68012B1BD109E0FFF7ACF86A
:102130000200FB68D31A3C4A934201D903236BE0A7
:10214000384BDB680C221340042BEFD10EE0FFF775
:102150009BF80200FB68D31A334A934201D9032348
:102160005AE0304BDB680C221340F0D12C4B1B683B
:10217000012213403A689A4211D2294B1B6801226E
:1021800093431900264B3A680A431A60244B1B6894
:10219000012213403A689A4201D001233CE07B6857
:1021A0001B680422134009D01E4BDB681F4A1340F2
:1021B00019007B68DA681B4B0A43DA607B681B688E
:1021C000082213400AD0174BDB68194A1340190044
:1021D0007B681B69DA00134B0A43DA6000F02EF8C3
:1021E0000100104BDB681B090F221340114AD35C1E
:1021F0000A00DA40104B1A600B257C190020FFF70B
:102200000DF8030023707B191B78002B03D00B23E0
:10221000FB181B7800E000231800BD4604B0B0BDD9
:10222000002002400010024088130000FFF8FFFF6A
:10223000FFC7FFFF8C6000080400002080B586B057
:1022400000AF3B4BDB68FB60FB680C221340082BA4
:102250000ED00C2B0FD0042B57D1354B1B681022FE
:10226000134002D0334B3B615DE0334B3B615AE09E
:10227000324B3B6157E0FB689B0C0F221340304A06
:10228000D35CBB60FB689B0D0322134001337B6072
:10229000274BDA6880235B0213400FD0B9680A002D
:1022A0005201521A93019B1ADB005B185B0279689A
:1022B0001800FDF73BFF03007B6123E01C4B1B680C
:1022C000102213400FD0B9680A005201521A93012C
:1022D0009B1ADB005B181B0279681800FDF726FFCC
:1022E00003007B610EE0B9680A005201521A9301A3
:1022F0009B1ADB005B189B0279681800FDF716FF3C
:1023000003007B617B693B610DE0094B5B685B0B04
:10231000072213403B603B680133802212029A403F
:1023200013003B61C0463B691800BD4606B080BD46
:102330000010024000093D000024F40000127A0061
:10234000A460000880B500AF024B1B681800BD46B2
:1023500080BDC0460400002080B500AFFFF7F2FF4B
:102360000100064BDB681B0A07221340044AD35CBA
:10237000D9400B001800BD4680BDC0460010024089
:102380009C60000880B500AFFFF7DCFF0100064B42
:10239000DB68DB0A07221340044AD35CD9400B00F8
:1023A0001800BD4680BDC046001002409C60000879
:1023B00080B586B000AF78607B681B682022134030
:1023C00006D17B681A6880231B01134000D1DDE031
:1023D0001723FB1800221A709C4B9A6B80235B0515
:1023E00013400AD1994B9A6B984B802149050A43B7
:1023F0009A631723FB1801221A70954B1A688023E1
:102400005B0013401AD1924B1A68914B802149000E
:102410000A431A60FEF738FF03003B6108E0FEF74D
:1024200033FF02003B69D31A642B01D9032308E16F
:10243000874B1A6880235B001340F0D0834B1A68E7
:10244000C0239B031340FB607B685A68C0239B0337
:102450001340FA689A4207D17B689A68C0239B03AD
:102460001340FA689A4213D07B685A68C0239B02D3
:102470001A40C0239B029A420AD1744B1A688023E7
:102480009B021A4080239B029A4201D10123D8E08B
:102490006E4B1A6DC0239B021340FB60FB68002B40
:1024A00049D07B685A68C0239B021340FA689A425D
:1024B00004D07B681B68202213400DD17B689A688A
:1024C000C0239B021340FA689A4234D07B681A6892
:1024D00080231B0113402ED05C4B1B6D5D4A1340C3
:1024E000FB605A4B1A6D594B802109030A431A6548
:1024F000564B1A6D554B58490A401A65534BFA68AA
:102500001A65FA6880235B00134014D0FEF7BCFE06
:1025100003003B6109E0FEF7B7FE02003B69D31AF6
:102520004E4A934201D903238BE0484B1A6D802316
:102530009B001340EFD07B685A68C0239B021A406F
:10254000C0239B029A420CD1404B1B68444A134063
:1025500019007B685A68C0239B031A403B4B0A430F
:102560001A603A4B196D7B685A68C0239B021A4067
:10257000364B0A431A651723FB181B78012B05D12C
:10258000324B9A6B314B37490A409A637B681B6820
:102590000122134009D02D4BDB6C03229343190019
:1025A0007B68DA68294B0A43DA647B681B6802227D
:1025B000134009D0254BDB6C0C22934319007B6838
:1025C0001A69224B0A43DA647B681B6804221340B1
:1025D00009D01E4BDB6C244A134019007B685A69F2
:1025E0001A4B0A43DA647B681B680822134009D03F
:1025F000164BDB6C1D4A134019007B689A69134B1C
:102600000A43DA647B681B684022134009D00F4BF1
:10261000DB6C174A134019007B681A6A0B4B0A439C
:10262000DA647B681B688022134009D0074BDB6C9F
:10263000104A134019007B68DA69044B0A43DA64D4
:1026400000231800BD4606B080BDC0460010024001
:1026500000700040FFFFFCFFFFFFF7FF8813000042
:10266000FFFFCFFFFFFFFFEFFFF3FFFFFFCFFFFFF6
:10267000FFFFFFFBFFFFF3FF80B582B000AF786084
:102680007B68002B01D101238EE07B6821229B5CBB
:10269000DBB2002B07D17B682022002199547B6894
:1026A0001800FEF77DFC7B682122022199547B688B
:1026B0001B68CA225A627B681B6853225A627B6875
:1026C000180000F0E0FB031E09D07B681B68FF22A6
:1026D0005A627B68212204219954012364E07B68BB
:1026E0001B689A687B681B6831490A409A607B685E
:1026F0001B6899687B685A687B681B691A437B680A
:102700009B691A437B681B680A439A607B681B6855
:102710007A68D2681A617B681B6819697B689B6854
:102720001A047B681B680A431A617B681B68DA68B5
:102730007B681B6880218A43DA607B681B68DA6CDF
:102740007B681B6803218A43DA647B681B68D96C49
:102750007B68DA697B685B691A437B681B680A439C
:10276000DA647B681B689B682022134013D17B6866
:10277000180000F061FB031E0DD07B681B68FF2270
:102780005A627B682122042199547B68202200210F
:102790009954012308E07B681B68FF225A627B681A
:1027A00021220121995400231800BD4602B080BDAA
:1027B000BFFF8FFF90B587B000AFF860B9607A6057
:1027C000FB6820229B5C012B01D10223ADE0FB685A
:1027D000202201219954FB682122022199547B680F
:1027E000002B25D1FB681B689B684022134002D157
:1027F000BB680022DA70BB681B78180000F06DFB24
:1028000003001C04BB685B78180000F066FB030043
:102810001B021C43BB689B78180000F05EFB0300A2
:1028200022001A43BB68DB781B0413437B6117E06B
:10283000FB681B689B684022134002D1BB680022E2
:10284000DA70BB681B781A04BB685B781B02134301
:10285000BA6892781A43BB68DB781B0413437B6128
:10286000FB681B68CA225A62FB681B6853225A62C3
:10287000FB68180000F007FB031E0DD0FB681B6807
:10288000FF225A62FB68212204219954FB6820220E
:1028900000219954012348E0FB681B687A692549A7
:1028A0000A401A60FB681B689A68FB681B6822492B
:1028B0000A409A60FB681B689968BB68DA68BB6865
:1028C0001B691A43FB681B680A439A60FB681B6814
:1028D000DA68FB681B6880218A43DA60FB681B6842
:1028E0009B682022134013D1FB68180000F0A4FA63
:1028F000031E0DD0FB681B68FF225A62FB68212271
:1029000004219954FB6820220021995401230CE0F2
:10291000FB681B68FF225A62FB682122012199543F
:10292000FB6820220021995400231800BD4607B0FF
:1029300090BDC0467F7F7F00FFFFFBFF80B586B064
:1029400000AFF860B9607A60FB681B689A6ABB6880
:102950005A60FB681B681B695B045A0CBB689A6071
:10296000FB681B681B68224A13407B617B691B0C58
:10297000DBB23F221340DAB2BB681A707B691B0AD4
:10298000DBB27F221340DAB2BB685A707B69DBB2DC
:102990007F221340DAB2BB689A707B691B0CDBB2F2
:1029A00040221340DAB2BB68DA707B68002B1AD180
:1029B000BB681B78180000F0B9FA03001A00BB6866
:1029C0001A70BB685B78180000F0B0FA03001A00B8
:1029D000BB685A70BB689B78180000F0A7FA030028
:1029E0001A00BB689A7000231800BD4606B080BD6F
:1029F0007F7F7F0090B587B000AFF860B9607A60E4
:102A0000FB6820229B5C012B01D1022399E0FB682B
:102A1000202201219954FB682122022199547B68CC
:102A2000002B0ED1BB685B781A001023134008D02E
:102A3000BB685B7810229343DBB20A33DAB2BB681F
:102A40005A707B68002B1CD1BB68DB78180000F043
:102A500044FA03001C04BB685B78180000F03DFAE0
:102A600003001B021C43BB689B78180000F035FA7A
:102A7000030022001A43BB681B785B0313437B618E
:102A80000EE0BB68DB781A04BB685B781B0213435B
:102A9000BA6892781A43BB681B785B0313437B6167
:102AA000FB681B68CA225A62FB681B6853225A6281
:102AB000FB68180000F0E7F9031E0DD0FB681B68E7
:102AC000FF225A62FB68212204219954FB682022CC
:102AD00000219954012334E0FB681B687A691B4983
:102AE0000A405A60FB681B68DA68FB681B68802133
:102AF0008A43DA60FB681B689B682022134013D16D
:102B0000FB68180000F098F9031E0DD0FB681B68E5
:102B1000FF225A62FB68212204219954FB6820227B
:102B20000021995401230CE0FB681B68FF225A62C4
:102B3000FB68212201219954FB682022002199542D
:102B400000231800BD4607B090BDC0463FFFFF0000
:102B500080B586B000AFF860B9607A60FB681B682A
:102B60005B68214A13407B617B691B0CDAB2BB684E
:102B7000DA707B691B0ADBB21F221340DAB2BB6832
:102B80005A707B69DBB23F221340DAB2BB689A709D
:102B90007B695B0BDBB207221340DAB2BB681A70A9
:102BA0007B68002B1AD1BB68DB78180000F0BEF9F7
:102BB00003001A00BB68DA70BB685B78180000F08D
:102BC000B5F903001A00BB685A70BB689B781800FF
:102BD00000F0ACF903001A00BB689A7000231800DB
:102BE000BD4606B080BDC0463FFFFF0090B589B02E
:102BF00000AFF860B9607A60FB6820229B5C012B13
:102C000001D102230CE1FB68202201219954FB68C9
:102C10002122022199547B68002B36D1FB681B6866
:102C20009B684022134002D1BB680022DA70BB6867
:102C30001B78180000F051F903001C04BB685B7896
:102C4000180000F04AF903001B021C43BB689B7884
:102C5000180000F042F9030022001A43BB68DB7839
:102C60001B041A431400BB6820229B5C180000F070
:102C700034F903001B0622001A43BB68DB691A43C0
:102C8000BB685B691343FB6122E0FB681B689B68C0
:102C90004022134002D1BB680022DA70BB681B7867
:102CA0001A04BB685B781B021343BA6892781A4314
:102CB000BB68DB781B041A43BB6820215B5C1B06E6
:102CC0001A43BB68DB691A43BB685B691343FB614A
:102CD000BB685A68BB689B691343BB61FB681B6890
:102CE000CA225A62FB681B6853225A62BB685A6A3E
:102CF00080235B009A4243D1FB681B689A68FB689B
:102D00001B6849490A409A60FB681B689A68FB681F
:102D10001B6846490A409A60FEF7B6FA03007B61D9
:102D200016E0FEF7B1FA02007B69D21AFA239B0083
:102D30009A420DD9FB681B68FF225A62FB68212268
:102D400003219954FB68202200219954032367E052
:102D5000FB681B68DB6801221340E2D0FB681B683C
:102D6000FA69DA61FB681B68BA695A64FB681B6818
:102D70009A68FB681B68802149000A439A6042E018
:102D8000FB681B689A68FB681B6829490A409A60BF
:102D9000FB681B689A68FB681B6826490A409A60B2
:102DA000FEF772FA03007B6116E0FEF76DFA02008F
:102DB0007B69D21AFA239B009A420DD9FB681B68E3
:102DC000FF225A62FB68212203219954FB682022CA
:102DD00000219954032323E0FB681B68DB6802226F
:102DE0001340E2D0FB681B68FA691A62FB681B6833
:102DF000BA699A64FB681B689A68FB681B68802143
:102E000089000A439A60FB681B68FF225A62FB68CC
:102E1000212201219954FB6820220021995400238A
:102E20001800BD4609B090BDFFFEFFFFFFEFFFFF9A
:102E3000FFFDFFFFFFDFFFFF80B584B000AF7860CC
:102E40007B681B68DA687B681B68A0218A43DA60AC
:102E5000FEF71AFA0300FB600AE0FEF715FA02001B
:102E6000FB68D21AFA239B009A4201D9032306E099
:102E70007B681B68DB6820221340EED0002318001B
:102E8000BD4604B080BD80B584B000AF78607B687B
:102E90001B68DB68402213401AD17B681B68012243
:102EA0005242DA60FEF7F0F90300FB600AE0FEF739
:102EB000EBF90200FB68D21AFA239B009A4201D96F
:102EC000032306E07B681B68DB6840221340EED0DA
:102ED00000231800BD4604B080BD80B584B000AFAB
:102EE0000200FB1D1A700023FB600B23FB18FA1D68
:102EF00012781A7008E0FB680133FB600B22BB18E4
:102F0000BA1812780A3A1A700B23FB181B78092B8F
:102F1000F1D8FB68DBB21B01DAB20B23FB181B787C
:102F20001343DBB21800BD4604B080BD80B584B049
:102F300000AF0200FB1D1A70FB1D1B781B09DBB2E2
:102F40001A0013009B009B185B00FB60FB68DAB261
:102F5000FB1D1B780F210B40DBB2D318DBB218002E
:102F6000BD4604B080BD000080B586B000AFF860FB
:102F7000B9607A60FB6820229B5C012B01D102239F
:102F80008CE0FB68202201219954FB682122022158
:102F90009954FB681B68CA225A62FB681B6853225B
:102FA0005A62FB681B689A688023DB00134021D0BB
:102FB000FEF76AF903007B6116E0FEF765F902008F
:102FC0007B69D21AFA239B009A420DD9FB681B68D1
:102FD000FF225A62FB68212203219954FB682022B8
:102FE00000219954032359E0FB681B68DB68042225
:102FF0001340E2D1FB681B689A68FB681B6829498B
:103000000A409A60FEF740F903007B6116E0FEF784
:103010003BF902007B69D21AFA239B009A420DD930
:10302000FB681B68FF225A62FB6821220321995426
:10303000FB6820220021995403232FE0FB681B68C2
:10304000DB6804221340E2D0FB681B689A68FB68C7
:103050001B6807218A439A60FB681B689968FB68B4
:103060001B687A680A439A60FB681B68BA685A61F1
:10307000FB681B689A68FB681B688021C9000A43CB
:103080009A60FB681B68FF225A62FB6821220121BB
:103090009954FB6820220021995400231800BD4652
:1030A00006B080BDFFFBFFFF80B586B000AFF860C3
:1030B000B9607A60FB681B6850337B61BB689B001A
:1030C0007A69D3187B617B697A681A60C046BD460D
:1030D00006B080BD80B582B000AF78607B68002B01
:1030E00001D1012344E07B685B6F002B07D17B6833
:1030F0007022002199547B681800FDF769FF7B68F6
:1031000024225A677B681B681A687B681B68012148
:103110008A431A607B68180000F00EFA0300012B46
:1031200001D1012324E07B685B6A002B03D07B681C
:10313000180000F019FD7B681B685A687B681B68E3
:103140000D490A405A607B681B689A687B681B6857
:103150002A218A439A607B681B681A687B681B680F
:1031600001210A431A607B68180000F0B1FD0300DA
:103170001800BD4602B080BDFFB7FFFF80B58AB022
:1031800002AFF860B9603B60BB1D1A80FB685B6FE3
:10319000202B00D094E0BB68002B03D0BB1D1B8804
:1031A000002B01D101238CE0FB689A6880235B012E
:1031B0009A4209D1FB681B69002B05D1BB6801222B
:1031C000134001D001237CE0FB6870229B5C012B43
:1031D00001D1022375E0FB68702201219954FB683C
:1031E0000022DA67FB6821225A67FEF74DF80300D8
:1031F0007B61FB68BA1D502112885A52FB68BA1DC8
:10320000522112885A52FB689A6880235B019A42C5
:1032100008D1FB681B69002B04D10023FB61BB684C
:10322000BB6103E0BB68FB610023BB612CE07A69F2
:10323000F8683B68009313000022802100F08EFDA7
:10324000031E01D003233CE0FB69002B0BD1BB69BB
:103250001B881A00FB681B68D205D20D9A62BB69F5
:103260000233BB6107E0FB691A78FB681B689A624E
:10327000FB690133FB61FB6852229B5A9BB2013B05
:1032800099B2FB6852229952FB6852229B5A9BB218
:10329000002BCCD17A69F8683B68009313000022B8
:1032A000402100F05BFD031E01D0032309E0FB6811
:1032B00020225A67FB68702200219954002300E005
:1032C00002231800BD4608B080BD000080B588B05C
:1032D00000AF78607B681B68DB69FB617B681B68FB
:1032E0001B68BB617B681B689B687B61FB690F2265
:1032F00013403B613B69002B12D1FB692022134034
:103300000ED0BB69202213400AD07B681B6E002BB5
:1033100000D1F6E07B681B6E7A6810009847F0E0F9
:103320003B69002B00D1B8E07B690122134005D135
:10333000BA6990235B00134000D1AEE0FB69012223
:1033400013400ED0BA6980235B00134009D07B681C
:103350001B6801221A627B68DB6F01221A437B68BB
:10336000DA67FB69022213400DD07B69012213400A
:1033700009D07B681B6802221A627B68DB6F04221B
:103380001A437B68DA67FB69042213400DD07B691E
:103390000122134009D07B681B6804221A627B68F3
:1033A000DB6F02221A437B68DA67FB69082213404D
:1033B00011D0BB692022134003D17B690122134045
:1033C00009D07B681B6808221A627B68DB6F0822C1
:1033D0001A437B68DA677B68DB6F002B00D192E0D1
:1033E000FB69202213400CD0BB692022134008D077
:1033F0007B681B6E002B04D07B681B6E7A68100004
:1034000098477B68DB6FFB607B681B689B6840228A
:103410001340402B03D0FB680822134033D07B6855
:10342000180000F0E5FC7B681B689B684022134095
:10343000402B23D17B681B689A687B681B684021FE
:103440008A439A607B68DB6E002B12D07B68DB6E50
:10345000304A9A637B68DB6E1800FEF717F8031E8C
:1034600019D07B68DB6E9A6B7B68DB6E1800904727
:1034700011E07B68180000F057F80CE07B6818003A
:1034800000F052F807E07B68180000F04DF87B6808
:103490000022DA6737E0C04635E0FA6980235B0333
:1034A00013400ED07A698023DB03134009D07B6878
:1034B0001B68802252031A627B68180000F0E9FC46
:1034C00024E0FB69802213400DD0BB6980221340A9
:1034D00009D07B685B6E002B17D07B685B6E7A68C7
:1034E0001000984711E0FB69402213400ED0BB69E1
:1034F000402213400AD07B68180000F0B0FCC046A0
:1035000004E0C04602E0C04600E0C046BD4608B048
:1035100080BDC046313E000880B582B000AF786003
:10352000C046BD4602B080BD80B582B000AF7860B5
:10353000C046BD4602B080BDB0B58EB000AFF861E8
:103540001B2318229446BC44634410221A700023A3
:10355000FB62132318229446BC44634400221A7071
:1035600000237B62FB699A68FB691B691A43FB694C
:103570005B691A43FB69DB6913437B63FB691B6867
:103580001B68C84A13401900FB691B687A6B0A4321
:103590001A60FB691B685B68C34A13401900FB692A
:1035A000DA68FB691B680A435A60FB699B697B63A5
:1035B000FB691B68BD4A934204D0FB691B6A7A6BA6
:1035C00013437B63FB691B689B68B94A134019006E
:1035D000FB691B687A6B0A439A60FB691B68B54AF2
:1035E000934234D1B44BDB6C03221340012B15D032
:1035F00004D3022B0AD0032B18D01FE01B23182260
:103600009446BC44634401221A70ABE01B23182289
:103610009446BC44634402221A70A3E01B23182280
:103620009446BC44634404221A709BE01B23182276
:103630009446BC44634408221A7093E01B2318226A
:103640009446BC44634410221A70C0468AE0FB6969
:103650001B689A4A934237D1974BDB6C0C2213407C
:10366000042B18D002D8002B05D024E0082B0AD058
:103670000C2B18D01FE01B2318229446BC44634433
:1036800000221A706EE01B2318229446BC44634447
:1036900002221A7066E01B2318229446BC4463443D
:1036A00004221A705EE01B2318229446BC44634433
:1036B00008221A7056E01B2318229446BC44634427
:1036C00010221A70C0464DE0FB691B68774A93428E
:1036D00041D1794BDA6CC0231B0113408022D20008
:1036E00093421FD08022D200934202D8002B09D0EF
:1036F00028E08022120193420CD0C0221201934292
:1037000018D01FE01B2318229446BC4463440022B7
:103710001A7027E01B2318229446BC4463440222FB
:103720001A701FE01B2318229446BC4463440422F1
:103730001A7017E01B2318229446BC4463440822E5
:103740001A700FE01B2318229446BC4463441022D5
:103750001A70C04606E01B2318229446BC446344FA
:1037600010221A70FB691B68504A934200D083E014
:103770001B2318229446BC4463441B78022B0DD0B3
:1037800002DC002B05D01DE0042B12D0082B15D035
:1037900018E0FEF7E1FD03007B621BE0464B1B686F
:1037A0001022134002D0464B7B6213E0454B7B62F4
:1037B00010E0FEF743FD03007B620BE080231B0259
:1037C0007B6207E0132318229446BC446344012221
:1037D0001A70C0467B6A002B00D1A6E1FB695A68CB
:1037E00013005B009B187A6A9A4205D3FB695B68F9
:1037F0001B037A6A9A4207D9132318229446BC44C1
:10380000634401221A7090E17B6A3B6100237B6173
:1038100039697A690B001B0E100005021D430B006D
:103820001C02FB695B685B08BB600023FB60B86837
:10383000F96800196941FB695B683B6000237B60A4
:103840003A687B68FCF70CFE03000C00FB62FB6A25
:103850001D4A934208D9FB6A1C4A934204D8FB696B
:103860001B68FA6ADA6060E1132318229446BC44AC
:10387000634401221A7058E1FB69DA6980231B0254
:103880009A4200D0C3E01B2318229446BC446344F0
:103890001B78082B00D986E09A000D4BD3181B68C3
:1038A0009F46C046F369FFEFFFCFFFFF004800408F
:1038B000FFF4FFFF003801400010024000440040C8
:1038C00000093D000024F400FF020000FFFF0F008C
:1038D000B0600008FEF740FD03005A00FB695B681A
:1038E0005B08D218FB695B6819001000FCF71EFC2E
:1038F00003009BB2FB625EE0FEF744FD03005A004A
:10390000FB695B685B08D218FB695B6819001000F3
:10391000FCF70CFC03009BB2FB624CE08B4B1B687A
:10392000102213400ED0FB695B685B08884A9A1826
:10393000FB695B6819001000FCF7F8FB03009BB201
:10394000FB6238E0FB695B685B08824A9A18FB6996
:103950005B6819001000FCF7E9FB03009BB2FB62F7
:1039600029E0FEF76BFC03005A00FB695B685B080B
:10397000D218FB695B6819001000FCF7D7FB030045
:103980009BB2FB6217E0FB695B685B088022520216
:103990009A18FB695B6819001000FCF7C7FB03006D
:1039A0009BB2FB6207E0132318229446BC44634495
:1039B00001221A70C046FB6A0F2B20D9FB6A664AA7
:1039C00093421CD8FB6A9AB20A2018243B191B1890
:1039D0000F218A431A80FB6A5B089BB207221340BF
:1039E00099B23B191B183A19121812880A431A8007
:1039F000FB691B683A1912181288DA6095E01323E4
:103A000018229446BC44634401221A708DE01B23A3
:103A100018229446BC4463441B78082B6AD89A0049
:103A20004E4BD3181B689F46FEF796FC0200FB69BD
:103A30005B685B08D218FB695B6819001000FCF733
:103A400075FB03009BB2FB625CE0FEF79BFC02008F
:103A5000FB695B685B08D218FB695B6819001000A2
:103A6000FCF764FB03009BB2FB624BE0374B1B6827
:103A7000102213400ED0FB695B685B08384A9A1825
:103A8000FB695B6819001000FCF750FB03009BB258
:103A9000FB6237E0FB695B685B08324A9A18FB6996
:103AA0005B6819001000FCF741FB03009BB2FB624E
:103AB00028E0FEF7C3FB0200FB695B685B08D218D5
:103AC000FB695B6819001000FCF730FB03009BB238
:103AD000FB6217E0FB695B685B08802212029A18A0
:103AE000FB695B6819001000FCF720FB03009BB228
:103AF000FB6207E0132318229446BC44634401226E
:103B00001A70C046FB6A0F2B08D9FB6A124A93420F
:103B100004D8FB691B68FA6ADA6006E013231822EE
:103B20009446BC44634401221A70FB6900221A6661
:103B3000FB6900225A66132318229446BC4463444E
:103B40001B781800BD460EB0B0BDC0460010024044
:103B500000127A000048E801FFFF0000D46000086E
:103B600000093D000024F40080B582B000AF786009
:103B70007B685B6A012213400BD07B681B685B6823
:103B80004A4A134019007B689A6A7B681B680A439B
:103B90005A607B685B6A022213400BD07B681B680B
:103BA0005B68434A134019007B68DA6A7B681B68CC
:103BB0000A435A607B685B6A042213400BD07B681F
:103BC0001B685B683B4A134019007B681A6B7B6873
:103BD0001B680A435A607B685B6A082213400BD05B
:103BE0007B681B685B68344A134019007B685A6B1A
:103BF0007B681B680A435A607B685B6A102213402B
:103C00000BD07B681B689B682C4A134019007B68AB
:103C10009A6B7B681B680A439A607B685B6A202208
:103C200013400BD07B681B689B68254A1340190022
:103C30007B68DA6B7B681B680A439A607B685B6A07
:103C4000402213401DD07B681B685B681D4A1340EF
:103C500019007B681A6C7B681B680A435A607B6892
:103C60001A6C80235B039A420BD17B681B685B68EC
:103C7000154A134019007B685A6C7B681B680A431D
:103C80005A607B685B6A802213400BD07B681B689C
:103C90005B680E4A134019007B689A6C7B681B684E
:103CA0000A435A60C046BD4602B080BDFFFFFDFF1B
:103CB000FFFFFEFFFFFFFBFFFF7FFFFFFFEFFFFFA9
:103CC000FFDFFFFFFFFFEFFFFFFF9FFFFFFFF7FF9C
:103CD00080B586B002AF78607B680022DA67FDF7B6
:103CE000D3FA0300FB607B681B681B680822134043
:103CF000082B0DD1FA68802399037868164B00933E
:103D00001300002200F02AF8031E01D003231FE055
:103D10007B681B681B6804221340042B0DD1FA68D2
:103D20008023D90378680C4B00931300002200F025
:103D300015F8031E01D003230AE07B6820225A678E
:103D40007B6820229A677B687022002199540023A7
:103D50001800BD4604B080BDFFFFFF0180B584B0F0
:103D600000AFF860B9603B60FB1D1A7029E0BB69C9
:103D7000013326D0FDF788FA02003B68D31ABA69EE
:103D80009A4202D3BB69002B1BD1FB681B681A68DF
:103D9000FB681B6815490A401A60FB681B689A6833
:103DA000FB681B6801218A439A60FB6820225A67DE
:103DB000FB6820229A67FB68702200219954032334
:103DC0000FE0FB681B68DB69BA681340BA68D31A56
:103DD0005A425341DBB21A00FB1D1B789A42C6D0EF
:103DE00000231800BD4604B080BDC0465FFEFFFF43
:103DF00080B582B000AF78607B681B681A687B680A
:103E00001B680A490A401A607B681B689A687B68CD
:103E10001B6801218A439A607B6820229A677B682D
:103E200000221A66C046BD4602B080BDDFFEFFFF1D
:103E300080B584B000AF78607B689B6AFB60FB68EC
:103E40005A2200219952FB68522200219952FB68A4
:103E50001800FFF769FBC046BD4604B080BD80B5C1
:103E600082B000AF78607B681B681A687B681B684B
:103E700040218A431A607B6820225A677B680022AF
:103E80005A667B681800FFF747FBC046BD4602B084
:103E900080BD80B582B000AF7860C046BD4602B03C
:103EA00080BD0000014B18687047C0460800002024
:103EB00070B500260C4D0D4C641BA410A64209D110
:103EC000002602F089F80A4D0A4C641BA410A64291
:103ED00005D170BDB300EB5898470136EEE7B3004B
:103EE000EB5898470136F2E7B8630008B86300085A
:103EF000B8630008BC630008074B70B51C68050078
:103F0000E36B002B03D1242000F0FEF8E0632800CF
:103F1000E16B00F003F870BD08000020F7B50C005D
:103F2000070000F015FF21000500380000F014FF25
:103F3000714A436904009E18B30706D1642130001A
:103F4000FCF764FA0123002906D1C821300049009A
:103F5000FCF75CFA4B424B4130214B4367495B18FD
:103F6000019300F013FD00F013FD654B1B68002B5F
:103F700025D06B68B3420CD106CF2E68286A6B6AD5
:103F8000002E0ED1934211DC01D188420ED80123BC
:103F900015E0300000F04AFC0028EDD101235B421F
:103FA0000DE093420ADC01D1884207D8E86C012376
:103FB000904204DC02D1AA6C8A4200D8002323621A
:103FC000236A012B49D12F6DE12138000901FCF74B
:103FD0001DFA0E003C213000FCF718FA236830006F
:103FE0005D1A25603C21FCF72BF9E121636809018A
:103FF0001E1A66603800FCF723F9A3681B1AA36039
:104000003B2D2CDD013666603C3D256062683B2A15
:104010002BDD0133A3603C3A6260A268172A33DDCE
:10402000E3690133E361A3690133062B23DCA36158
:10403000183AE368A260226901330198E3609100B5
:1040400009588B4205DD5B1A0132E3600C2A14D05B
:10405000226100F09CFC2000FEBDAF6AB4E7002D99
:10406000D4DA013E66603C35CFE7002AD5DA013B61
:10407000A3603C32D0E70023D9E7002263692261C4
:1040800001336361E261E4E7002AE2DAE369013BBC
:10409000E361A369013B11D4A361E3681832591E9F
:1040A000E160A2600029D4D12369013B08D42361D7
:1040B0002369019A9B009B58E360CAE70623EBE75C
:1040C0000B2365690F4A23616B1E6361AD189B0763
:1040D00006D164212800FCF799F90123002906D1B3
:1040E000C82128004900FCF791F94B424B416D3340
:1040F000FF33E361DCE7C0466C070000586100084D
:10410000900200206B07000010B5034B01001868F7
:1041100000F0F0FA10BDC0460800002010B5034BB7
:104120000100186800F09CFA10BDC046080000208D
:10413000002310B59A4200D110BDCC5CC4540133A9
:10414000F8E703001218934200D170471970013349
:10415000F9E70000F7B5016804003B290BD93C22C0
:10416000684600F09BFD63680099019A5B186360E4
:10417000002A51DB226061683B290BD93C2268464A
:1041800000F08CFDA3680099019A5B18A360002AD7
:1041900047DB6260A16817290BD91822684600F036
:1041A0007DFDE3680099019A5B18E360002A3DDB1E
:1041B000A26021690B290BD90C22684600F06EFD24
:1041C00063690099019A5B186361002A33DB2261FD
:1041D00065691C23AA070FD164212800FCF716F992
:1041E0001D23002908D13C4B9131E818FF31FCF721
:1041F0000DF94B424B411C33E2681D27002A45DD77
:1042000003261C272269E168012A43D0334D900020
:104210004059814241DC3CE03C32013B226063601A
:10422000A9E73C32013B6260A360B3E71832013B6F
:10423000A260E360BDE70C32013B22616361C7E726
:104240002269013A2261013217D10B2303226569E9
:104250002361681E6061113310420ED16421FCF7A6
:10426000D5F83B00002908D11D4B9131E818FF31EA
:10427000FCF7CCF84B424B411C3321691A00012951
:1042800002D0164A89008A58B618E660E668002E01
:10429000D6DDF7BD8B42FCDA1800091A0132E16065
:1042A00022610C2AAED1002365692361681C60611C
:1042B0003B003042A6D16421FCF7A8F81D23002959
:1042C000A0D1084B9131E818FF31FCF79FF84B4221
:1042D0004B411C3396E7C0466C070000F8600008AD
:1042E0006B0700006D070000F0B58BB0040000F014
:1042F0002FFD07002000FFF72DFF3C236268A16817
:10430000534322689B18E12212014A439B180093F1
:10431000E268DB1701932369501EB54A99008A5859
:104320008218049262690392012B14DD13009B072B
:1043300011D164211000FCF769F8002908D1039B12
:10434000AC4A9131FF319818FCF760F8002902D18E
:10435000049B01330493049BA749E361039BA74A91
:104360005B18934200D974E1039B462B00DC88E084
:10437000C8264625760003231D4200D07FE0642135
:104380002800FCF743F8B7235B00002908D1994BBC
:104390003100E818FCF73AF84B424B416E33FF33DB
:1043A000049A0135D3180493039BAB42E3D1049ADA
:1043B000934B53431800D917009A019B12184B4195
:1043C0000092019300F0E2FA00F0E2FA8D4B1D68D2
:1043D000002D4CD06369874A9818236A0593089387
:1043E000002B01DD012308937B68834200D089E024
:1043F000B86CF96C3B6D02000993099B0693DB17BF
:104400000793BB6A1D00DE179C460B00521BB3418D
:104410001E00019B15009E420EDC02D1009B9D42B6
:104420000AD8069A079B801A9941019B99426EDC33
:1044300002D1009B98426AD8069807993A6A7B6A2B
:10444000121A8B413968002963D001998B420ADC2A
:1044500002D100998A4206D8019B9E4260DC02D1BB
:10446000009B9D425CD8059B0025002B5CDABB6A53
:104470001E00DF17009A019BB6185F41A6E06E236D
:104480008DE7039B462B92D0C8264525760016E083
:10449000002B30D164212800FBF7B8FFB7235B0065
:1044A000002908D1534B3100E818FBF7AFFF4B420E
:1044B0004B416E33FF33049A013DD31A0493032317
:1044C000039A2B40AA42E3DB002B16D16421100093
:1044D000FBF79CFF002912D1039B464A91319818A3
:1044E000FF31FBF793FF4B4259416E31FF31049B83
:1044F0005B1A04935BE76E23DCE76E21F6E7B721D6
:104500004900F4E700F092F9002800D070E7089D18
:1045100051E001998B429FDC02D100998A429BD8DD
:10452000059B0125002B49DB089E6E40012E42D1E0
:104530006346099A9B1A002D00D15B42180022683D
:10454000D917D2182260009A019B12184B41009291
:104550000193E36820000593FFF7FCFDE368059AEB
:104560009B1A28D0012B20DC5A1C00DB1E00049B68
:10457000E2699B1904930323B61847D5039A501E8A
:10458000184215D16421FBF741FF00292DD11E4AA5
:10459000039B9446913163441800FF31FBF736FFCB
:1045A0004B4259416D31FF3104E001267642DEE78E
:1045B000B6214900E161012D00D058E73B6D01258E
:1045C0001E00DF17009A019BB6185F4100F0DFF96B
:1045D0000498256204300721FBF718FF002936DB19
:1045E000A161300039000BB0F0BD6E21DBE7C046A1
:1045F000286100086C07000010270000204E000012
:1046000080510100900200206B070000039A1A42BB
:1046100016D164211000FBF7F9FE002912D10F4AD0
:10462000039B9446913163441800FF31FBF7EEFE83
:104630004B4259416E31FF318E4206DAE661BAE7EC
:104640006E21F8E7B7214900F6E7761AF6E7073159
:10465000C6E701267642F717C3E7C0466C0700009D
:1046600070B50500002910D00C1F2368002B00DA5C
:10467000E418280000F03EFC1D4A1368002B05D109
:1046800063601460280000F036FC70BDA34209D9B5
:10469000216860188342F3D118685B684118216073
:1046A000EEE713005A68002A01D0A242F9D919682E
:1046B0005818A0420BD12068091858181960824276
:1046C000E0D110685268411819605A60DAE7A042D8
:1046D00002D90C232B60D5E721686018824203D1F0
:1046E000106852684118216062605C60CAE7C04689
:1046F0006C020020032370B5CD1C9D4308350600D5
:104700000C2D1ED20C25A9421DD8300000F0F2FB62
:10471000254A14682100002919D1244C2368002B54
:1047200003D1300000F044F820602900300000F090
:104730003FF8431C2BD10C233000336000F0DBFB2F
:1047400003E0002DDFDA0C233360002070BD0B681E
:104750005B1B19D40B2B03D90B60CC18256003E02D
:104760004B688C420DD11360300000F0C4FB200078
:1047700007220B30231D9043C31AE7D05A42E25060
:10478000E4E763600C00EFE70C004968C3E703232C
:10479000C41C9C43A042E1D0211A300000F008F86C
:1047A000431CDBD1C7E7C0466C020020700200202A
:1047B000002370B5064C050008002360FCF77AFC66
:1047C000431C03D12368002B00D02B6070BDC04672
:1047D000400300200EB400B50B499CB01DAB029005
:1047E0000690079104910948094904CB0591006896
:1047F00002A9019300F0E2FB0023029A13701CB09F
:1048000008BC03B01847C046FFFFFF7F0800002028
:104810000802FFFF030041188B4202D01A78002AD9
:1048200001D1181A70470133F6E70000F0B589B0DE
:10483000040000F08DFA4E4B060000209C425FDD24
:104840006E2564214B4BFF35E01845434A4B74609D
:10485000E0184A4B80102D184942E018FBF7F0FC95
:10486000C821474B2D184900E018FBF7E9FC6421EB
:104870002B1820000093FBF7C9FD0191C8212000EF
:104880004900FBF7C3FD0A0053425A413300583335
:104890000793032335001C400291049208350594C8
:1048A0002B78EF684A2B2DD1009BDC19059B002B40
:1048B00002D1019B002B03D10021029B8B4203D12B
:1048C00001213B2F00DC00216418013C2D492B699C
:1048D0004C43E4182B6AE418AC61079BE417EC61C5
:1048E0002835AB42DCD1F16C726A0123914205DCC0
:1048F00003D1B26C316A8A4200D8002301203360B0
:1049000009B0F0BD442B02D1009BDC19DEE7059B0A
:10491000049A002B03D1019B002B00D001223023ED
:1049200053430693184B00219C466868009C069AE6
:1049300001318B009B186246043BD3580393884295
:1049400010DC201D0721FBF761FD791A00D5073126
:10495000AB685A1E072353435918039B994204DA44
:104960006418B3E7039BE418E1E70739F5E7C046AD
:10497000B10700004EF8FFFF4FF8FFFF93F8FFFF6D
:10498000BFF9FFFF80510100586100087047704770
:1049900010B5024B186800F003F810BD08000020A5
:1049A000F0B58DB0070000F0D3F9AF49060038002C
:1049B00000F0C8F9AD4D041E0DD1AD4BAD4A1860E5
:1049C000AD4B1860AD4B28681A605A60FFF7A6FB24
:1049D0002C600DB0F0BD2968002959D12868FFF777
:1049E0009DFB2000FBF79AFB411C3800FFF782FE7D
:1049F0002860002851D12378A1493A3B5A425341BB
:104A0000E418A04A0AAB200000F04CFD0028E0DDCD
:104A10000A9BE41823782D2B43D12E3B01340493B9
:104A2000162702ABFF18002308AD3B802B800AAB92
:104A3000039302950193009707AA9349200000F081
:104A400031FD0028C5DD3C233A88904F53432A8826
:104A50008A4D9B1802AA918AE12212014A439B18AF
:104A6000049A87495A43874BB2622B600A9B3A00EB
:104A7000E41820000AAB00F015FD002818DC2B68B4
:104A8000B26A6B607A4B1A6000227B4B1A60A0E717
:104A9000FBF73AFB00289CD0A0E7210000F02CFD9A
:104AA000A9E701222B3B04925A425341E418B7E78D
:104AB0000A9B6F60E41823782D2B00D08DE02E3BED
:104AC000013404931627002302AABF1807AD1383ED
:104AD0002B803B8008AA0A930AAB029203930193AE
:104AE00000972A006849200000F0DCFC002800DD67
:104AF0007AE0B36A664A9B1833650A9B3700E4186C
:104B000000230837049323782C3B5A425341E4187E
:104B100025784D2D00D078E01E2202A9521802926D
:104B200009AA00921A220AAB521803930193594919
:104B3000200000F0B7FC032800D04AE702AB598BF5
:104B40004B1E0B2B00D944E702AB9A8B531E042B50
:104B500000D93EE702ABDB8B062B00D939E73D706D
:104B60007960BA60FB600A9BE518022307AA1380EC
:104B7000002302A908ACCB8223800A932B782F2B29
:104B80000BD1162102A809180AAB009103930294D5
:104B900001934149280000F085FC02ABDA8A3C23EE
:104BA000534322889B1807AA1188E12212014A4325
:104BB0009B183B610A9B2837EC18049B012B22D1E0
:104BC0007068FFF733FEB26A294B1A60336D9B1A87
:104BD0005A1E9341284A1360FBE601222B3B0492A4
:104BE0005A425341E4186DE73C233A8829885343DD
:104BF00002AA128B9B18E12212014A439B18049AC5
:104C00005A43130078E701237CE7442305934A2D98
:104C100001D1013405950A220BA9200000F018FDEE
:104C20001E2302AA0B9D9B181880A54216D1049B37
:104C3000002B08D14D3333720323F360013B336102
:104C4000049B736191E733004D2230331A700B23BC
:104C500073630A3BB3630023F36386E7059B80B26B
:104C60003B70F86081E7C046B86100088C02002004
:104C700094020020BB610008900200206C0000201C
:104C8000BF6100087F020020E2610008740200207A
:104C9000F0F1FFFFCE610008E161000870B50E0081
:104CA0000400110030001500FBF7B0FB002E07DBFD
:104CB000002901DA0130491B20606160200070BDCD
:104CC0000029F9DD01384919F6E70000F0B50E00BA
:104CD00085B00700039200F0CFFC194C3300256823
:104CE000002D06D1380000F0C8FC002005B0F0BD52
:104CF00001331A78002A1FD03D2AF9D1F2E7043592
:104D000028680028EED0019A310000F0FDFB002851
:104D1000F5D1019A2B689446634402931B783D2B8E
:104D2000EDD123683800ED1A039BAD101D6000F033
:104D3000A4FC02980130D9E79B1B0193E0E7C04631
:104D40000000002007B501AAFFF7C0FF0EBD00005C
:104D50000048704778000020F0B50668476885B0C5
:104D6000594A002330000C003900FBF755FB574A25
:104D70000190851800233000534A3900FBF74CFBA3
:104D8000161E06DA524A504B9446F618019B6344AD
:104D90001D00E12130000901FBF752FAE121A0607A
:104DA00009013000FBF732FB0E003C213000FBF71D
:104DB00047FA3C2160603000FBF728FBE81C2160CB
:104DC0000721FBF723FB002900DA0731A161281E28
:104DD000404901DA404BE818FBF732FA07003F4838
:104DE0003F49784345192800FBF7A0F93D4946198A
:104DF0002800FBF79BF93C49361A2800FBF796F987
:104E00006E21361AFF313000FBF790F937490190D7
:104E10003000FBF78BF9334945193000FBF786F971
:104E20006E21019BFF3159432D1A6B1A052618007C
:104E30007043992102300293FBF778F9050099201D
:104E40006843029B3100013302300393FBF76EF994
:104E5000039B033E1B1A0393092D00D90C3EC82364
:104E60005B005F43019B7619FF1801250023B542C3
:104E70005B41FF183223029AFF339A420ED9150084
:104E8000333DFF3D1A4B2000FF18039BE561E360B3
:104E9000002367612661236205B0F0BD019B9B077B
:104EA00006D164210198FBF7C7F92800002906D133
:104EB000C82101984900FBF7BFF948424841029DCB
:104EC0003B352D18DEE7C046805101006CFA0A0020
:104ED0006BFA0A00B13A020050C5FDFF4FC5FDFF55
:104EE000AC8E0000B4050000B03A0200948E0000C1
:104EF00094F8FFFF70477047F0B58E6885B00700E3
:104F00000C00039201939E423CD890238A89DB00D7
:104F10001A4234D00325096923685B1A0293636936
:104F200002985D43EB0F5D19019B6D1001331B1857
:104F3000AB4200D91D00530532D529003800FFF7D8
:104F4000D9FB061E09D10C233B6040230120A28916
:104F500040421343A38105B0F0BD029A2169FFF7D7
:104F6000E7F8A389144A1A4080231343A381029BC4
:104F70002661F61826606561019EED1AA560019B09
:104F80009E4200D9019E32000399206800F0A5FBE3
:104F9000A36800209B1BA36023689E192660DAE7A4
:104FA0002A00380000F0ACFB061EE0D12169380071
:104FB000FFF756FBC7E7C0467FFBFFFFF0B5A1B088
:104FC00003901D008B890F0016001B0611D50B697D
:104FD000002B0ED14021FFF78DFB3860386100288F
:104FE00005D10C23039A0138136021B0F0BD402392
:104FF0007B61002308AC6361203363761033A376B2
:10500000079535002B78002B01D0252B46D1AB1B03
:1050100005930CD0320039000398FFF76DFF431C55
:1050200000D1AEE06269059B9446634463612B78CE
:10503000002B00D1A5E0012200235242626004A9A6
:10504000543252186E1C2360E360A3601370A36592
:1050500031780522534800F035FB751C00281FD11C
:105060002268D30604D5532304A95B1820211970A4
:10507000130704D5532304A95B182B211970337827
:105080002A2B16D0350000210A20E3682A786E1CEE
:10509000303A092A4ED9002918D010E00135B1E77D
:1050A000404B2268C01A01238340134323602E0023
:1050B000CEE7079B191D1B680791002B01DB0B93A3
:1050C00004E05B42E3600223134323602B782E2B22
:1050D0000AD16B782A2B35D1079B02351A1D1B6824
:1050E0000792002B2BDB09932F4E297803223000E7
:1050F00000F0E8FA002806D04023801B8340226895
:105100000135134323602978062228486E1C217636
:1051100000F0D8FA00283CD0254B002B25D10722DF
:10512000079B07339343083307936369049A9B18DB
:10513000636166E7434301219B183500A6E701231D
:105140005B42D0E700230A201A000135636029780A
:105150006E1C3039092903D9002BC5D00992C3E749
:105160004243012352183500F1E707AB00933A00A0
:10517000104B2100039800E000BF0490049B013312
:10518000D3D1BB890D985B0600D42EE701204042A5
:105190002BE707AB00933A00064B2100039800F081
:1051A00079F8EAE7F4610008FA610008FE61000896
:1051B00000000000F94E0008F7B5150001938A6859
:1051C0000B6900900C00934200DA130022002B6060
:1051D00043321278002A01D001332B6023689B06EA
:1051E00002D52B6802332B60062723681F4027D087
:1051F000230043331B785A1E93412268920630D411
:105200002200019943320098089EB047431C25D0E4
:10521000062320682A68E16803400025042B03D197
:105220008D1AEB43DB171D40A3682269934201DD11
:105230009B1AED180027BD4220D1002010E0013755
:10524000E3682A689B1ABB42D2DD2200012319328F
:1052500001990098089EB047431CF0D101204042BC
:10526000FEBD3020E1184331087021005A1C453141
:105270000978A218433202331170C1E722000123DA
:105280001A3201990098089EB047431CE6D00137B6
:10529000D1E70000F0B589B004920A0043320593CB
:1052A000039002920A7E0C000E9B6E2A00D186E0CB
:1052B0001FD8632A33D008D8002A00D18CE0582A9E
:1052C0004DD0250042352A7030E0642A01D0692A89
:1052D000F7D1196825680A1D280629D508681A60BB
:1052E000002803DA2D23029A404213706B4E0A27DE
:1052F0004FE0732A74D008D86F2A1FD0702AE0D1EB
:10530000202209680A43226003E0752A16D0782A11
:10531000D7D12200782145321170614E22E025005C
:105320001A684235111D196013682B70012365E05E
:1053300008681A606906D3D500B2D1E719682568F4
:10534000081D186008682E0605D5544E08276F2AD8
:105350001BD00A2719E06D06F7D580B2F5E7453175
:105360004E4E0A7018682268011D00681960150603
:1053700021D5D30702D520231A4322601027002805
:1053800003D1202322689A43226023000022433362
:105390001A706368A360002B58DB042221689143D4
:1053A0002160002854D1029D002B5AD0250033786B
:1053B00042352B7055E05506DBD580B2D9E71A6827
:1053C0000D68101D4969186013682E0601D5196013
:1053D00002E06D06FBD519800023029D23614FE09A
:1053E0001A68111D1960156800216268280000F014
:1053F00069F9002801D0401B6060636823610023C5
:10540000029A13703CE023692A0004990398059DD1
:10541000A847431C3ED023689B0715D4079BE06830
:10542000984239DA180037E0220001231932049932
:105430000398059EB047431C2CD00135E368079ABA
:105440009B1AAB42F0DCE9E70025F7E70028ADD076
:10545000029D3900FAF7F0FE735C013D2B700028C5
:10546000F7D1082F09D12368DB0706D563682269C5
:10547000934202DC3023013D2B70029B5B1B2361B6
:10548000059B07AA00932100049B0398FFF794FE55
:10549000431CB8D10120404209B0F0BD05620008AC
:1054A000166200080EB4812370B59DB002AC21AD28
:1054B0009B0040CDA38102900690FAF72FFE0B4B84
:1054C000606063620023606109486363A364013B19
:1054D000E38132002B0021000068019500F092F971
:1054E0001DB070BC08BC03B01847C046F554000896
:1054F000080000200020704703000A7801311A706C
:105500000133002AF9D17047002330B59A420AD0FE
:10551000013AC45CCD5CAC4204D1934202D0013369
:10552000002CF6D1631B180030BDF0B51F000E0033
:1055300085B00390019102920A98347800F09EF8A9
:10554000082200194378751C134038D12D2C38D10E
:105550007478B51C01330093002F65D0102F09D14A
:10556000302C07D120222B789343582B57D110276A
:105570006C780235012039004042FAF7D7FD060069
:10558000012039004042FAF757FE002301228C46E1
:105590001800524221003039092917D80C00A742BF
:1055A00022DD002B1EDB1300864205D301D1A4456A
:1055B00002DB0123784320182C780135EAE72E001E
:1055C000BAE72B2CC7D1B51C7478C4E72100413948
:1055D000192901D8373CE2E721006139192903D89C
:1055E000573CDCE71300E7E7002B09DA2223012010
:1055F000039A40421360029B002B0AD105B0F0BD14
:10560000009A002A00D04042029A002AF6D0002BCD
:1056100001D06B1E0193029B019A1A60EEE73024C1
:10562000002FA7D10827A5E7302C9BD00A27A1E798
:1056300013B5054C2468246A002C00D1034C009457
:10564000FFF773FF16BDC04608000020D000002001
:1056500037B51300064A05001068046A002C00D113
:10566000044C0A0000942900FFF75FFF3EBDC046CE
:1056700008000020D000002070477047EC30006820
:1056800070470000044B1B681B6A002B00D1034BC2
:10569000EC3318687047C04608000020D000002096
:1056A00082B0002900D101A9101E06D0002B06D01F
:1056B00013780B601078431E984102B070470220A7
:1056C0004042FAE7C9B28218904201D100207047E7
:1056D00003788B42FBD00130F6E710B5884202D93F
:1056E0008B18984203D3002307E08B5C8354013A64
:1056F000FBD210BDCC5CC45401339A42FAD1F8E716
:10570000F8B507000D001600002905D11100FEF7BD
:10571000F1FF04002000F8BD002A03D1FEF7A0FF2E
:105720003400F7E700F050FC2C00B042F2D2310018
:105730003800FEF7DFFF041EECD029003200FEF730
:10574000F7FC29003800FEF78BFFE3E770B5140083
:105750004B1C03D101256D42280070BD9389202286
:105760009343626BA381CEB2CDB26368002A10D09E
:10577000A26B9A4207DD2368013B23601E706368B9
:1057800001336360E8E7210000F0D4FB0028F2D089
:10579000E0E721692268002907D0914205D2511E15
:1057A0000878A84201D12160EAE72364230044334A
:1057B00063630323A36323004633E2631E70236005
:1057C0000123DEE710B50C00496B00290ED0230041
:1057D0004433994201D0FEF743FF0020236C6063FD
:1057E0006360834202D0E36B236010BD2369012014
:1057F00023600023A289636020331343A3814042C6
:10580000F3E70000F0B517000022B04CC025A54416
:105810004892499205AA4A92BE220C00AC490090D7
:10582000520045A88150AB496D00415104933B782B
:10583000002B00D148E1FFF725FF08223B787E1CB2
:10584000C01801934378134020D06368002B14DD07
:10585000FFF718FF082123681A78801842780A4257
:1058600001D13700E3E7499A0133019201324992AD
:1058700062682360013A6260E7E745AB5B5921004B
:105880000098019398470028E2D0EAE7019A252A78
:105890006DD1479345937B782A2B02D11A3B4593D0
:1058A000BE1C37000A2239787B1C02930B00303B68
:1058B000092B24D9884E03223000FFF703FF00286C
:1058C00007D00123801B8340459A029F1343039214
:1058D00045933B787E1C672B35D8652B00D3B8E009
:1058E000472B14D8452B00D3B3E0002B00D1E8E0C0
:1058F000252B3CD003234B930733469366E0479B0D
:10590000029F03935343303B59184791CBE75B2BDE
:1059100000D17AE010D8582BECD1459A0192802220
:10592000019992000A434592102246926E229A42B1
:105930009B415B42033348E0632B00D172E0642B50
:10594000D8D10A22F1E7702B35D008D86E2B00D1C0
:1059500070E037D8692BCDD100234693EAE7752B49
:10596000EFD0782BD9D0732BC4D102232DE06368FC
:10597000002B0FDD236801991A788A4200D0A3E03A
:10598000013362682360499B013A019301336260ED
:10599000499366E745AB5B5921000098029398470D
:1059A0000028E7D04898002800D086E00138A723D7
:1059B0009B009D44F0BD459A0192202201990A4323
:1059C0004592AAE708234693043B4B936368002B58
:1059D00041DD459B01935B0608D4FFF753FE082188
:1059E00023681A78801842780A423DD14B9B022BDB
:1059F0004FDC04AB220045A9009800F071F80128A3
:105A000062D0022800D02CE7CCE7310005A800F0D6
:105A1000CFF9459B060001934023019A1343459318
:105A20000123D2E7459B01934023019A13434593F9
:105A30000023CAE74598C30600D512E7049B499A9C
:105A4000191D04911B68C70701D51A8009E71A6060
:105A500007E70523B9E745AB5B592100009801939F
:105A600098470028B5D09DE7499A019201324992A2
:105A70006268013A6260002A02DD01332360ACE70C
:105A800045AB5B5921000098019398470028A4D0AA
:105A900088E7042B06DC04AB220045A9009800F03F
:105AA00085F8ACE70D4B002B00D1DAE604AB220001
:105AB00045A9009800E000BFA1E7A3895B0600D4D8
:105AC00075E70120404272E7489870E764FDFFFFE8
:105AD0004D570008C5570008FA6100080000000093
